S023000044796E616D69634D756C746970726F746F636F6C4C69676874536F632E73333772
S31500000000884403201DC705004D060200C59F050054
S31500000010A70A02020002000004180FAC20690001C2
S3150000002000000000000000000000000000000000CA
S3150000003000000000000106000000000000000000B3
S315000000400000000000000000FFFFFFFFFFFFFFFFB2
S31500000050FFFFFFFFFFFFFFFFFFFFFFFFFFFFFFFFAA
S3150000006000700F000000000000000000FFFFFFFF0F
S31500000070FFFFFFFF1C000000000000000000000062
S315000000800000000000000000ECBD0320ECBD0320D2
S315000000908844032069E2060042CA0500884203201C
S311000000A0C8110020000010000000000045
S31500000200884403201DC705004D060200C59F050052
S31500000210CBF30200C99F0500CD9F0500000000003A
S3150000022000000000000000000000000073B30000A2
S31500000230D19F05000B980000EBCA05004FC70000D0
S31500000240E7F302005F07040005920000D99F05004E
S3150000025025020400990704006507040067070400E7
S315000002606107040099F704003D250400ED920200A1
S31500000270C1C80200D99F0500D99F0500D7A905006E
S31500000280D99F0500D99F05005D250400D99F05006B
S31500000290D99F0500D99F0500D99F0500D99F050064
S315000002A0D99F0500D99F0500D99F0500D99F050054
S315000002B09B07040063070400DF480300CB07040024
S315000002C0D99F0500D1C50500D99F0500D99F050016
S315000002D0D99F0500D99F0500D99F0500D99F050024
S315000002E0D99F0500D99F0500D99F0500D99F050014
S315000002F0D99F0500D99F0500D99F0500D99F050004
S31500000300D99F0500D99F050000000000703F0348F3
S31500000310016830BF41F000410160704700BF4C31B9
S315000003200E401348816B89B201B1012141F6713249
S315000003308263026842F00102026046F21A32C26427
S315000003404FF4807242604269D207FCD44FF4000C2D
S3150000035020140022C264C9B2026852085200026028
S3150000036009B100218163002054000208000E4000FC
S3150000037080B54748474A0188002000F0DDFB532836
S31500000380A8BF522002BD2DE9F04300F074F883B0F7
S3150000039000684579284600F0B8FD00F061F8412272
S315000003A000F064F800F06CF8FFF7E2FF814611E018
S315000003B06A462146284600F0A6FD50B1BDF8000069
S315000003C000F0F2FD9DF8020000F0DFFD3078401CE1
S315000003D03070641CE4B2444503DA3888C01C814599
S315000003E0E6DA38E02DE9FE4300F045F80068457985
S315000003F0284600F086FD00F033F8422200F036F879
S3150000040000F03EF8FFF7B4FF81461DE06A4621463C
S31500000410284600F074FDB0B1BDF8000000F0C4FD40
S315000004209DF8020000F0B1FDBDF8040000F0BCFD2F
S31500000430BDF8060000F0B8FD9DF8080000F0A5FD27
S315000004403078401C3070641CE4B2444503DA3888C6
S3150000045008308145DADA00F002FB0120BDE8FE83B0
S3150000046080460194CDF8008008A370474FF4805170
S31500000470092000F0DDBE04460748084F00687047B3
S31500000480398807484618002000F07FBD75750000C2
S3150000049086AE0320287603200C7703209AAE03202D
S315000004A03476032080B501F0C3FAFF2805D0022870
S315000004B003D2DFF82418085C02BD002002BD00B597
S315000004C083B00221009101AB0022032101F09EFCC2
S315000004D020B9BDF8040010B1012000E00020C0B230
S315000004E00EBDF0B5059D00260027092D044602D352
S315000004F000200021F0BDB4460FE05FFA8CFCA5EBAE
S315000005000C0020443F0210F8010C47EA1667002150
S3150000051010EB06264F410CF1010C5FFA8CF0A84255
S31500000520EBD39F4206D828BF964203D2901B63EBBB
S315000005300701F0BDB01A67EB0301F0BD10B5016805
S31500000540DFF898270B8813804B88538049791171FF
S315000005500168097951714FF48A51D180016889790E
S31500000560890644BF4FF48B51D180DFF87417836935
S315000005700A783BB9C088DFF86C37188002F0FD00B6
S31500000580087010BD42F002020A7016228169DFF877
S315000005905847204601F006FF0020207010BD80B5A8
S315000005A0002001F040FFFF2001F09BFA01F049FF17
S315000005B000F0F1FE01460122DFF81C0701F05CFFA6
S315000005C0DFF81837DFF82427DFF82407522100F078
S315000005D01AFE01F0B1FF02F043F802F04EF902F004
S315000005E03DFA03F0B8F903F0D3FE03F00EFF03F073
S315000005F03AFF03F089FF03F093FFBDE8014000F0E6
S315000006009CBF03F003BF80B504F08BF820B905F05A
S3150000061085FD08B903F030FC00F08BFCBDE8014015
S3150000062000F096BC30B500234FF6FF72DFF8C446E3
S3150000063001E05B1C9BB234F8335095420DD08542E5
S31500000640F7D1B0F57C4F06DB04EBC3056D888D4210
S3150000065001D00D00EDD1184630BD104630BD10B5A5
S315000006600446FFF7DFFF0146DFF88C0600884FF6E9
S31500000670FF72914203D12246DFF8801606E0DFF8CA
S31500000680742602EBC1014A68DFF87416BDE8104013
S3150000069005F098BEDFF86C06006800B1008A704766
S315000006A010B50446DFF860060078002882B03CD01A
S315000006B005F062FF0246DFF85416022005F082FEBE
S315000006C02068418800914379A289DFF84416022008
S315000006D005F078FE022005F033FE20B12068218A5D
S315000006E04088FFF7BCFFE07B28B1228ADFF824169A
S315000006F0022005F067FEE07CDFF81C160090A0687B
S315000007000278A37C022005F05DFE207DA1890A1AED
S31500000710A1680144012392B2022005F046FFBDE81C
S315000007201C40AAA1022005F047BE13BD10B5044621
S315000007302068407901F07CF9FF281DD0DFF8DC1530
S31500000740227F01EB0010017B914215D1226840887F
S315000007501188884206D04FF6FF7399420CD1B0F546
S31500000760004F09DA2079022818BF032806D111891B
S31500000770507906F087F908B9002010BDA07B002843
S31500000780204603D0BDE8104006F0CAB9BDE81040C7
S3150000079006F0F6B970B5144682B01A462378DFF82B
S315000007A080555B074CBF052303239A4205D200936D
S315000007B013462A46DFF86C1533E0089E3060317127
S315000007C00698F080B460B281207800F00100B07322
S315000007D02078800800F00100F0732078C00800F04F
S315000007E00100707501203075F07B30B10121204683
S315000007F000F038FC317D891C31753082307DB3893B
S31500000800411C3175205CB074481CC9B23075C2B247
S31500000810615CF174934209D2C0B200902A46DFF8B7
S315000008200815022005F0C8FD002076BD0798B061C6
S3150000083006F0EFFC3077012076BD2DE9FE430F462A
S31500000840DFF8E814DFF8E854DFF8B88491EC080B19
S3150000085085EC080B0B9E0295019600240A990091DF
S315000008603946FFF797FF002867D0C8F80050A87CE4
S31500000870DFF8C01408702846FFF712FF2846FFF776
S315000008805DFE284606F094FD20BB2EBB042F18BF44
S31500000890052F03D0022F18BF032F01D1012200E03C
S315000008A00022E98828680191418800910121038886
S315000008B0E87C00F01DF990B12868807980060ED496
S315000008C0DFF87444012020700121284600F00EF95B
S315000008D000202070012430E0307D80072DD5286867
S315000008E04079FF2825D10027DFF8F06300F053FD9B
S315000008F0F9B2814221D2F8B201F09EF88146F8B2EF
S3150000090000F04DFD98B1286841882A8A484600F0D3
S31500000910D4FF60B12846FFF711FE286880F80590DD
S3150000092086F804902846FFF701FF00B101247F1CDA
S31500000930DCE72846FFF7FAFE044600F011FB162115
S31500000940DFF8A40306F050FD0020C8F8000020469A
S31500000950BDE8FE83DFF8E4030178491C017001F06D
S315000009607F007047DFF878130A78002814BF42F03A
S31500000970010002F0FE0008707047DFF8C41308702B
S31500000980704778B1DFF8B8130978012903D10188D7
S3150000099041F0400105E0022904D101884FF6BF72FB
S315000009A011400180704778B1DFF898130A78012A60
S315000009B004D1DFF8942312780A7001E0022A03D1E9
S315000009C0017841F010010170704700005D000000E1
S315000009D030B5C34C2378D90783B001D500203EBD7E
S315000009E0C8490A68BD4972B112689579AD0603D542
S315000009F0CD8845F02005CD809279520603D5CA8868
S31500000A0042F04002CA80BA4A15786D07C94D2D7862
S31500000A104CBFD57055709B0709D5B4480188B248BC
S31500000A2006F019FF217801F0FD0121703EBDAD4BA6
S31500000A301C884FF6FC739C4209DA019000920A4624
S31500000A40AA4803882146002007F0E2F83EBD009040
S31500000A501346A6480288204607F0B4F83EBD00209B
S31500000A60B6E70A460146A748006801E00021F8E714
S31500000A7070B504460E462079010018BF01281546B8
S31500000A800BD1A0680078C00601D5300005D0A07B48
S31500000A90002804BFE07C0B2801D1002070BD9349DB
S31500000AA000200880607DE17B00280CBF0820002024
S31500000AB011B900F06AFA06E040F0040000F065FAA9
S31500000AC0208A00F071FAA07C00F05FFA0B2000F09B
S31500000AD05CFAE07C00F059FA304600F056FA2046FF
S31500000AE0FFF72CFD2846BDE8704071E70022BFE7FE
S31500000AF070B50446954800781D4601288E4B01D0F6
S31500000B001E7816B10020187070BD82F001020A43EB
S31500000B1001D1002070BD00281EBF04984FF6574231
S31500000B20904206D00A4601462346284600F072F94E
S31500000B3000B1012070BD000038B5D2885224950658
S31500000B4048BF4924550544BF083CE4B2150544BFD7
S31500000B50083CE4B2120444BFA41EE4B203284FF6D4
S31500000B60FD7310D8DFE800F00204080D0B460AE01A
S31500000B70C8B207F01FFC02E0C8B207F045FE034604
S31500000B8001E0641EE4B2184600F05FF9201AC0B214
S31500000B9032BD42540844120A427070470844110A92
S31500000BA041700270110C8170110EC1707047B0B5A2
S31500000BB004460D000EBF00202878FF28174601D1F5
S31500000BC02070B0BD284600F071FA874288BF0746FC
S31500000BD03A46691C601C01F0E5FB2770B0BDF8B50C
S31500000BE00D000446164603D1002060702070F1BD4A
S31500000BF02878FF2802BF6878FF2820700DD0284685
S31500000C0000F059FA0746BE42B8BF37463A46A91C15
S31500000C10A01C01F0C7FB277038126070F1BDF0B55B
S31500000C20541E002B37D0052A48DA0025002600235B
S31500000C300CE0571EFF1AFF000CFA07FC4CEA0505EC
S31500000C4011F80EC00CFA07F73E435B1CDFB2974261
S31500000C5009D2DBB2A4EB030E00280CBF4FF0000C48
S31500000C6010F80EC0E5E7042A0FDAD0000121D20001
S31500000C70401E9140494245FA00F2D20748BF0D4353
S31500000C8046FA00F2D00748BF0E43AE420FDBB5422C
S31500000C9014DA10E05B1CDDB295420FD2DBB2E51A26
S31500000CA000280CBF0026465D4D5DB54201DA0120E5
S31500000CB0F0BDAE42EEDA4FF0FF30F0BD0020F0BDE1
S31500000CC00021234A01E0891CC9B2535C8342FAD34E
S31500000CD05018407870470000E0BC032028760320B7
S31500000CE052BD032086AE0320107703209AAE032060
S31500000CF03476032030E90500DEBC03207CE80500DD
S31500000D0094E805000C770320A24F03209CE8050019
S31500000D10A4E80500C4E80500D0E8050054750320E2
S31500000D200CE90500F0E8050014E9050078E905007E
S31500000D30EC760320A74F03204EBD0320A84F0320C7
S31500000D404FBD032050BD032051BD0320A64F0320F5
S31500000D5098E90500283808288041C00F704710B56B
S31500000D6000F009F8FF2801D1A32010BD002104F8E6
S31500000D703010002010BD0446084600F059BE38B5B4
S31500000D8000F00BF8FF2801D1A32032BD294604EB61
S31500000D90C000BDE8344001F000BC044608461546D4
S31500000DA000F046BE40B11C280CD01D280DD01E28D0
S31500000DB018BF1F2806D00AE0A1F10B00102806D2A2
S31500000DC0002070471B29FBDB01E00929F8DB8A209C
S31500000DD0704710F0E00011D0802806D0A02806D079
S31500000DE0C02806D0E02806D007E01C2070471D204A
S31500000DF070471E2070471F207047FF20704700F085
S31500000E001F0070477047012070470120704701207E
S31500000E1070477047002070470020704700207047D9
S31500000E20002070470020704700207047012070475F
S31500000E3001207047B520704700207047002070479A
S31500000E4000207047002070477047002070477047A9
S31500000E500020704770477047002070478420704715
S31500000E60704770477047704770470020704770475B
S31500000E707047012070470020704770B50C46154634
S31500000E801E4601000CBF0E4A0E4A03460E490120BB
S31500000E9005F092FA32460D49012005F08DFA2B46EF
S31500000EA02246BDE870400A49012005F085BA0020B7
S31500000EB07047084800680078012808BF022070477C
S31500000EC0F028060000290600C828060008290600A2
S31500000ED020290600887603207047002070470121EC
S31500000EE081814FF6FE71C1810121016100210170EE
S31500000EF001207047002070477047704770470020F8
S31500000F0070470020704700207047002070477047E8
S31500000F10002070477047002070470020704700206F
S31500000F20704700207047002070470020704700205F
S31500000F3070477047B5207047002070470020704703
S31500000F40704700207047704770477047B52070475C
S31500000F50704770470020704770477047704770476A
S31500000F6080B54C490020087007F090FE4A49088079
S31500000F7052214A4806F038FA4949002008800021E3
S31500000F804848002200230EC001BD10B544490A8816
S31500000F90522A07DA414CA054501C088080B22044E3
S31500000FA0401E10BD002010BD38B500F023F80546E0
S31500000FB0200AFFF7EAFF002D18BF002801D02846B7
S31500000FC032BD002032BDF8B500F014F800F019F873
S31500000FD000F013F80746200EFFF7D7FF002D18BFC5
S31500000FE0002E05D0002F18BF002801D02846F2BDDC
S31500000FF00020F2BD0446C0B2C7E706462002000E36
S31500001000C3E705462004000EBFE7F8B5244D2E8839
S315000010100C46A11952290BDA204F01462246B8196F
S3150000102001F0C0F9A019288080B2001B3818F2BD63
S315000010300020F2BD30B50024CD18AA4209DA0020FE
S3150000104030BD220251FA83F404445B1E14F8014CAD
S315000010501419DAB2002AF4D1204630BD0423E9E798
S315000010600323E7E780B50223FFF7E4FF80B202BD62
S31500001070F8B591420C4615460B4E07D2071938466D
S3150000108000F014F82018401C854201DA3046F2BD03
S315000010903846F2BD52BD032086AE032034760320C7
S315000010A09AAE032028760320DCBC03200078FF28B4
S315000010B008BF0020704780B502220021FFF7D2FF4B
S315000010C04FF6FF71884208BF002002BD2DE9F24F9E
S315000010D00329044602DB180004D00529C0F28E80DD
S315000010E042F0040201251800227003D0180A63702A
S315000010F0A0700325FFF72EFC6055691C0A9889B27B
S315000011004D1C60544FF00008DDF830A007E0324671
S315000011104946601908F036F8751908F101080B9868
S315000011205FFA88F810F80800010069D000277428D3
S315000011304FF0000BB94637DA4C285AF8049B1CBF0F
S315000011405328622814D15AF8046B4C2807D1B6B23A
S31500001150B3464FF6FF70834538D0022736E0532852
S3150000116034D15FFA86FBBBF1FF0F2FD001272DE0AC
S315000011706C2804D14846FFF79EFF861C26E073289C
S3150000118004D14846FFF792FF461C1FE0A0F130014C
S315000011900A2938BFA0F1300618D3A0F1410107296A
S315000011A02CD2A0F1370611E00026752808BF0127CA
S315000011B00AD0762808BF022706D0782808BF03275A
S315000011C002D077281AD104275AF804BBB6B2BDF864
S315000011D0000016FA85F1C919884206DA0EE004F80D
S315000011E005B06D1C4FEA1B2B7F1EF9B20029ADB26C
S315000011F0F5D1002E91D0B9F1000F88D1002000E082
S31500001200A8B2BDE8F28F10B53B4C20603B48018088
S315000012103B4802603B48036010BD10B584B00C46E5
S3150000122007A902910093134606990191024608E028
S3150000123010B584B00C46009206A9024602910193AD
S3150000124000232E4801882C480068FFF73FFF2C49F1
S31500001250096808804FF48A522A4909684C80CA8076
S3150000126004B010BD0346244802682548006801887A
S315000012702448006806F0F8BC0020F3E7E0B500F06B
S3150000128003F806F03BFC0EBD0091029301921A4949
S315000012900B681B4909680A881A49096870470023C0
S315000012A0ECE715480268164800680188154800688A
S315000012B006F04FBC00B583B001920F4A1268009247
S315000012C00F4A126813880F4A126806F0A1FC0EBD79
S315000012D00022EFE7E0B5FFF7D7FF06F082FC0EBD70
S315000012E00023F7E7074800687047064A1368187135
S315000012F010684171704700001C76032016AA03206F
S315000013002076032024760320DFF8F409DFF8F419A9
S3150000131000880A68DFF8F01984B0ADF8060003A863
S31500001320026002A80A68DFF8E4190260DFF8E00943
S315000013300088ADF80400DFF8DC090088ADF802008B
S315000013400020ADF80000022008700020DFF8C81960
S315000013500DF10603DFF8C4291B5C02EB00121370C3
S3150000136003AB33F81030538002AB33F81030938060
S3150000137001AB1B5C93710DF102031B5C01EBC30314
S3150000138093601DF800301373401C01230228537329
S31500001390DEDB04B07047DFF8740900787047DFF8C9
S315000013A07C1901EB0010407B00F0010070474128DA
S315000013B018BF422803D0432818BF442801D1012072
S315000013C0704700207047412818BF422801D10120EC
S315000013D0704700207047432818BF442801D10120D8
S315000013E0704700207047F8B515461E46079B069ABB
S315000013F0044600F077FA60B1042100F013FC070000
S3150000140007D0204601F014F8324629462046B84750
S315000014108FE0F1BD2DE9F04383B0044616009846EF
S315000014201EBF0A9F002F5FEA08000D461ED03878BF
S315000014300C9B7188000730794CBF4022802200F057
S3150000144051FA98B1082100F0EDFB814670B1307970
S3150000145000F0EEFF0B98019000974346324629466E
S315000014602046C847BDE8F74300F0EBBFBDE8F78369
S31500001470F8B500F039F8D0B121000BD1022100F007
S31500001480D1FB040013D0284600F0D2FF314628468F
S31500001490A0470BE0102100F0C5FB070007D0284647
S315000014A000F0C6FF224631462846B84741E0F1BD66
S315000014B0F8B500F019F808B98620F2BD00278CB9F6
S315000014C0202100F0AFFB04000CD0284600F0B0FF4E
S315000014D00998089B079A009031462846A047074678
S315000014E000F0AFFF3846F2BD1646069C1A46054682
S315000014F02346F7E1F8B50446A568207800F098FF82
S31500001500002612E02868F6B2142111FB06F14718EE
S3150000151020783988FFF77DFC0121384600F082FBF0
S3150000152001001CBF20788847761C2979F0B28842D2
S31500001530E8D3BDE8F14000F084BF70B50024DFF8C1
S31500001540DC57DFF8C86708E0FFF729FF20B1E4B2EF
S3150000155005EB0410FFF7CEFF641C3178E0B2884239
S31500001560F2D370BD10B586B000248DF80800ADF832
S315000015700A108DF80C30ADF80E200194009400236B
S315000015800898ADF81000002201A902A800F094F80E
S31500001590019806B010BD2DE9F0471746089C97F84C
S315000015A00290824620000E4698460CBFFD782546DE
S315000015B04846FFF708FF30B16A1ED2B231465046A0
S315000015C0FFF7F5FA1FE04846FFF705FF30B1AA1E00
S315000015D092B231465046FFF702FB14E0B8F1000F15
S315000015E006D1200004D0F878844238BF89200BD376
S315000015F0F9781EB9504607F001FE04E00A46314666
S31500001600504600F0CFFE0020BDE8F08710B500235D
S3150000161001E0001D5B1C9CB28C4204D204889442FB
S31500001620F7D1408810BD002010BDDFF8F416401A2F
S315000016300C2190FBF1F082B20021DFF8E806E5E725
S315000016400288B2F57C4FA8BF00F002B80846ECE766
S31500001650DFF8D416401A142190FBF1F082B2002173
S31500001660DFF8C806D2E710B50C46018863889942B0
S315000016700DD1027B23791A4209D0B1F57C4F04DBE8
S31500001680FFF7E6FF2189884201D1012010BD002025
S3150000169010BD10B514460A88E3889A420AD102881A
S315000016A0B2F57C4F04DAFFF7CBFF2189884201D1DE
S315000016B0012010BD002010BD2DE9FA4F83B004466D
S315000016C093460025002603E0C0884519ADB2761C76
S315000016D0DFF838160978F0B2884280F0B880F6B2A2
S315000016E03101DFF83806DFF834260844515C2278E9
S315000016F080689142E8D100903046FFF750FE0028FE
S31500001700E5D04FF0000A05E0B8F80A004519ADB279
S315000017100AF1010A009909795FFA8AF08842D6D25D
S3150000172000985FFA8AFA0068142111FB0AF100EBAF
S31500001730010821464046FFF796FF0028E4D04FF007
S31500001740000908E038793021084202D1F8782D18CE
S31500001750ADB209F10109B8F808101FFA89F08842FC
S31500001760D6D2D8F804001FFA89F90C2101FB09F139
S315000017704718224639464046FFF78BFF0028E1D03E
S31500001780039800B107603879800610D5DFF8900518
S31500001790002106E00279920602D5C278891889B23C
S315000017A00C30B842F6D3DFF88805461802E0DFF8B9
S315000017B0840546190E9D28001DD039464046FFF780
S315000017C03FFF02463B8861882078FFF720FBDA4618
S315000017D020B33879C00630D5002D394640461FD093
S315000017E0FFF72EFF0346CDF800B0618820783A4611
S315000017F0FFF71EFB2CE0BBF1000F08BF002027D02F
S3150000180039464046FFF71CFF02463B886188207830
S31500001810FFF7FBFAB24600285E46DAD17E2017E0D3
S31500001820FFF70EFFF9780191CDF800B00346618805
S3150000183020783A46FFF7FAFA0AE0BDF81000009061
S315000018402B463A4651463046FFF7A5FE00E0862075
S3150000185005B0BDE8F08F2DE9F845044688461646E2
S315000018609A46002503E0397B090616D46D1C2179BA
S31500001870E8B288421ED22068EDB2142111FB05F1B0
S31500001880471838884045F1D1310006D0802EEAD07D
S31500001890402EEBD1397B4906E8D5B0F57C4F07DB06
S315000018A03846FFF7D5FE504518BF5FEA0A00DDD17E
S315000018B0384600E00020BDE8F28580B5134607E013
S315000018C080B51346402204E080B51346802200E02E
S315000018D0002200F007F800B1012002BD80B5002308
S315000018E04022F6E770B50C4615461E4600F0A0F8F5
S315000018F0FF2801D1002070BD2146DFF8204404EB0B
S315000019000010334680682A46BDE87040A3E770B5EC
S315000019100C4615461E4600F08DF8022800DAEBE765
S31500001920002070BD1346402201E00022FAE72DE9AF
S31500001930F84F8046894692469B46FFF7D3FF00261E
S3150000194008B9FF201AE00027DFF8D043DFF8BC53C0
S3150000195000E07F1C2978F8B288420ED2FFB2380127
S31500001960205C404509D05B4652464946FFF7CFFF0B
S315000019700028EED0761CF6B2EBE73046BDE8F28FD3
S3150000198030B50022DFF8943300E0521CDFF87C53B8
S315000019902D78D4B2AC420CD2D2B214011D5D854270
S315000019A0F3D10D0003D01C44647BE407EDD510464B
S315000019B030BDFF2030BD80B50021FFF7E1FFFF28D5
S315000019C001D1002002BDBDE80240E8E470B50E4634
S315000019D004460021FFF7D4FFFF2801D1002070BD87
S315000019E0DFF8381301EB00153200687B00F00101C7
S315000019F014BF40F001000020B142687316D086B1D2
S31500001A002846FFF777FD11E00068F6B2142111FBB6
S31500001A1006F10844761C017BCA090188204600F0BD
S31500001A2011FEA8680279F1B29142EDD3012070BD92
S31500001A300121A5E70021A3E7DFF8E0120001085C19
S31500001A40704738B50C46FFF7F3FF01460020FF2923
S31500001A501FBFDFF8C82202EB01118968002916D0E2
S31500001A60002203E01B0648BF2846521C0D79D3B25C
S31500001A70AB420BD20B68D2B2142515FB02F52B44F0
S31500001A80451C1B7B002CEDD05B06ECE7C0B232BDDB
S31500001A90F8B50C461546FFF7CBFF01460022FF2995
S31500001AA01DD0002301E0521C5B1C9C4800EB01107A
S31500001AB0DEB280680779BE4211D20068DBB2142616
S31500001AC016FB03F630442F00067B02D0760602D4BE
S31500001AD0EAE73606E8D5D6B2A642E4D1F2BD002042
S31500001AE0F2BD002109E010B50446012100F005F819
S31500001AF02046BDE8104005F05ABC2DE9F34F87B0EB
S31500001B0005F087FB069000248048DFF810820078F5
S31500001B1005909DF81C00019000E0641C0599E4B254
S31500001B208C427BDA0199FF2907D09DF81C00FFF74C
S31500001B307FFF0446FF2C06D170E008EB04100699DF
S31500001B40007B8842E9D14FF0000A4FEA041901E010
S31500001B500AF1010A08EB09005FFA8AF18068027946
S31500001B60914257D200685FFA8AFA142111FB0AF1F2
S31500001B7045182889B0F5967FC8BF07F076FB002682
S31500001B8013E00120009000235A46002102A8FFF727
S31500001B9093FD9DF8200038B1BDF80A2018F8091009
S31500001BA03B46584600F03DF8761C2989B0B288427B
S31500001BB0CED26868B6B20C21714347183879C00690
S31500001BC0F2D418F809008DF8080039462888ADF8CF
S31500001BD00A00387940064CBF802040208DF80C0062
S31500001BE03888ADF80E002846FFF72AFDADF810003C
S31500001BF03979F878490706D5D7F808B00328C0DB45
S31500001C00DBF800B0BDE70328B4BF07F1080BD7F82F
S31500001C1008B0B6E70198FF283FF47FAF09B0BDE8EA
S31500001C20F08F704730B5047B012200230C4205D1AA
S31500001C30002030BD144218BF5B1C5200D5B28D4245
S31500001C40F8D30069DBB250F8230030BD3A49401A98
S31500001C508003020C00213948D8E42DE9FE4F0C46DA
S31500001C6000250028607D4FF0010A07D0010008BF5B
S31500001C70022707D0012804D1012703E008B9082765
S31500001C8000E00427DDF83490DDF83CB0A8462A4889
S31500001C90BDF8041000EB88063088884227D1F0781A
S31500001CA0384224D0B0789DF8381088421FD3F17896
S31500001CB0E07BC90607D5D0B13046FFF7C7FF218ABA
S31500001CC0814201D013E090B9AB4503D0BDF8300096
S31500001CD0854202DB4FF0000A0EE00299B0784855C3
S31500001CE06D1CB9F80000401CA9F80000ADB208F15F
S31500001CF00108B8F13C0FCADB5046BDE8FE8F000074
S31500001D00C2B6060094D6050098D6050049BD032044
S31500001D10C6B606005AB80600E4DA05005475032074
S31500001D2080D80500F8DA050030DA0500F4DA050097
S31500001D30B0750320747503208CD705007CD8050088
S31500001D402DE9F04786B00F9F109D0E9C02950197D6
S31500001D5006468A46904699460094FFF754F818B10D
S31500001D60022803D002D310E001200EE00CBF0120B0
S31500001D7000200021049103900295019700944B46A0
S31500001D8042465146304600F0E2F906B0BDE8F0871B
S31500001D9010B586B00024049401240394099C02948F
S31500001DA0089C01940024009415E010B586B000F05C
S31500001DB008F880230FE010B586B000F002F8402343
S31500001DC009E0002404940193012403940023089C51
S31500001DD000930294704700F0BAF906B010BD10B532
S31500001DE086B001240494002403940A9C0294099C5E
S31500001DF00194089C0094EEE71FB5089C0394079C89
S31500001E000294069C0194002400940CE01FB500F097
S31500001E1002F8402307E00024019303940023069C64
S31500001E2000930294704700F065FA04B010BD2DE9E6
S31500001E30F44F84B01D46DDF8388006468A46434690
S31500001E402A46FFF74FFD00240700BDF810008DF865
S31500001E500060A346D946ADF802A08DF80450ADF84F
S31500001E600600ADF8088049D069463846FFF7FBFB07
S31500001E70002843D0DDF83C80DDF840A0002505E0D1
S31500001E80FFF783F8641C09F101096D1C3989A8B2B2
S31500001E9088422BD27868ADB20C216943461838883F
S31500001EA0B0F57C4F09DA3088ADF806006A4631464F
S31500001EB03846FFF7EEFB0028E7D03088BDF8102043
S31500001EC0904238BF0BF1010BDDD3A1B24145DAD206
S31500001ED0FFF76AF8B078FFF758F85FEA0A00D1D042
S31500001EE03079C0074CBF07200520C9E71FFA8BF1E0
S31500001EF011FA84F01FFA89F1884201D1012000E02D
S31500001F00002005B0BDE8F08F2DE9F04F8DB000251B
S31500001F10DFF82C8400E06D1CFFF73DFAE9B2814240
S31500001F2080F0AE80EDB24FEA0519DFF8181418F804
S31500001F30092000F0D2F9DFF8101400F0CBF94FF0C9
S31500001F40000A01E00AF1010A08EB09005FFA8AF1CA
S31500001F50806802799142DED200685FFA8AFA14211B
S31500001F6011FB0AF14418002618E0FA78012392B210
S31500001F7004A9042004F019FB20885946FEF752FBF9
S31500001F804FF6FF71884208D0DFF8C01301EBC0009E
S31500001F90DFF8BC13426800F0A0F9761C2189B0B2C4
S31500001FA08842CFD26068B6B20C217143471807F059
S31500001FB05CF93879DFF89C134006388800904CBFEE
S31500001FC0DFF89433DFF894332288042004F0FAF91A
S31500001FD039462046FFF734FB834628B9DFF88013DD
S31500001FE0042004F0EFF904E05A4654A1042004F05A
S31500001FF0E9F93879810748BFDFF8681305D4C106C7
S315000020004CBFDFF86413DFF86413C00754BF4CA05D
S315000020104CA001910090FB78BA78DFF854130420A5
S3150000202004F0D0F93879CDF800B040064CBF8023D3
S315000020304023002003902120029004A801903A88B2
S31500002040218818F8090000F055F9862804D1DFF830
S31500002050241300F03FF9A0E7B878FFF7B4F920B1F0
S3150000206004A8FFF723F8421C80E7B878FFF7B3F916
S3150000207000283FF47AAF04A8FFF71DF8821C75E725
S315000020800DB0BDE8F08F2DE9F0438FB00746179CE1
S31500002090052C884691461E4641DB169DB64902959B
S315000020A00196CDF8009043463A4600F04DF804A854
S315000020B00390009521200290334605A801904A46D8
S315000020C04146384600F016F905002BD19DF8100060
S315000020D0212205A907F0FAF8050020D0201FA84202
S315000020E01DDB4846FEF760FF0020FEF74EFF9DF819
S315000020F01000A24CFEF749FF2788C7F152018D4216
S3150000210007DA9F4B2A4605A9D81900F04BF9E819BA
S31500002110208000954B4642469A4900F015F80FB0CC
S31500002120BDE8F0834846FEF73FFF2846FEF72DFF41
S3150000213000954B4642469449EFE700002532780069
S31500002140524F000052570000042004F035B92DE923
S31500002150F04F89B081460020049000900E46129CF4
S31500002160924698468DF81490ADF816608DF8188052
S31500002170ADF81AA0ADF81C400023002204A905A85A
S31500002180FFF79AFA0498814A40B9CDF804A0009660
S315000021904B467F49FFF7D8FF862098E0159898B9F7
S315000021A004999DF850008978884204D0794900F056
S315000021B094F88D208BE004980079C00704D4764902
S315000021C000F08BF8882082E004980079139D400780
S315000021D026D50498806840680290049880688068D4
S315000021E0019004988078FEF7B5FD07460498C078FC
S315000021F08DF8000003283B46024629461EDA02A84F
S31500002200FEF70DFD83469DF800203B46294601A8B2
S31500002210FEF705FDBBF1010F18BF10F1010F1CD031
S31500002220169800284FD1049880784FF6FF722946F9
S3150000223007F04CF8070012D1012048E00298FEF79B
S31500002240EEFC012809D09DF8002001983B4629465E
S31500002250FEF7E5FC10F1010FE2D1872037E0039588
S31500002260C0B200F03DF8FEF756FE01002FD10395EF
S31500002270F8B200F035F8FFF71BF9010027D101206D
S31500002280009000232A46002105A8FFF715FA010051
S315000022901DD1049B324649462846FFF7C2FC0295EB
S315000022A000F01FF801F006FE0395FFB2029700F05A
S315000022B018F8FEF72FFE009443465246314648462C
S315000022C0FFF7D6F802E0354900F004F8002009B01F
S315000022D0BDE8F08F042004F06FB8042004F06CB859
S315000022E00290009443469DF85000019052463146B4
S315000022F04846704710B586B000248DF808008DF862
S315000023000C30ADF80E20ADF80A100194009401A926
S3150000231008980A9B099AADF8100002A8FFF7CCF9B5
S31500002320040005D10B9840B101998978017004E049
S31500002330892C02D11A49FFF7CDFF204606B010BD01
S315000023405475032004DB050010DB050030E90500A9
S31500002350FCDA050050DB050064DB05006CDB0500DC
S3150000236074DB050094DB05009CDB0500A4DB05009F
S315000023707CDB0500ACDB0500B8DB05009AAE03206C
S315000023803476032010DC0500ECDB050064DC050078
S315000023903CDC050070DC050084DC050098DC0500EB
S315000023A0B8DC050081423ABF5318984206F0EABEEF
S315000023B08018990707D0521E24BF13F8011D00F894
S315000023C0011DF6D8704781071CD1103A07D330B4E7
S315000023D033E93210103A20E93210F9D230BC10320B
S315000023E0121F24BF53F8041D40F8041DF8D838BF47
S315000023F0121D521E24BF13F8011D00F8011DF8D846
S31500002400704700BF083A07D333E90210083A40F88C
S3150000241004CD40F8041DF7D20832EAE70C490D480E
S3150000242008600020704700B1702070470020704798
S3150000243080B500F013F8FF2801D1A32002BD0020CB
S3150000244002BD00207047704700BF03480078704700
S31500002450887603205EB806005475032080B5FFF722
S31500002460E7FAFF2818BF002002BD0021017070475F
S3150000247006F064BF00F09FB862F30F2262F31F42BA
S31500002480401810F0030308D0C91A1FD3DB0748BF52
S3150000249000F8012D28BF20F8022D130030B4144691
S315000024A01546103928BF20E93C00FAD8490728BF4D
S315000024B020E90C0048BF40F8042D890028BF20F809
S315000024C0022D48BF00F8012D30BC7047C91818BF4F
S315000024D000F8012DCB0728BF00F8012D7047704783
S315000024E080B50020FFF79FFF4A490020087007F0DB
S315000024F08DF8BDE80140FFF7A4BF70B50446164647
S315000025000D463046FFF794FF002020703046A8475E
S31500002510BDE87040FFF795BF01223F493F48ECE711
S3150000252001223F493F48E8E701223F493F48E4E7A7
S31500002530F2223D493E48E0E780B5012007F004F865
S315000025403C4806F095FF3C49087001BD80B507F090
S31500002550D1F8012805D038480078BDE8024006F0D9
S3150000256072BF01BD30B5002400E0641C334D2D88D8
S31500002570E3B2AB420FD2E4B20C25314B15FB04F5A6
S315000025802B441D78854201BF5D888D421D79954299
S31500002590EBD1184630BD002030BD80B519B906F024
S315000025A0CDFE002002BDB1F1004F02D206F0D1FEF1
S315000025B0F7E7022002BDB1F5000F3CBF0902FFF7A5
S315000025C0ECBF0220704770B504461D46FFF7CAFFF0
S315000025D006000ED02046FFF7EEF950B1B068294646
S315000025E0FFF7DBFF28B9049870710598B0710020D9
S315000025F070BD022070BD1CB500931346049C019467
S315000026000022FFF7E0FF16BD80B500230093FFF719
S31500002610F2FF02BDEC7403201FE90200DC74032004
S31500002620CBEC0200E474032069EA0200F474032090
S31500002630FC74032078450320DFB60320484F0320AF
S315000026400445032080B5FFF78DFF20B18068002187
S315000026500170002002BD022002BD0022F2E7704791
S3150000266030E03C480078022801DB0120704700205A
S31500002670704738B5374D04462878A04203D0214626
S31500002680FEF7F0FB2C7031BD10B5334C207860B9E5
S3150000269000F018F807F04AF80121217028B10188E6
S315000026A0B1F5817F24BF007D2070207810BD2949B7
S315000026B0097818B1022904DA022001E0022900DBB8
S315000026C0D7E7704738B5FFF7CCFF40BB07F01AF8DD
S315000026D002462249224C012003F06EFE0120FFF73C
S315000026E0E6FF2078FF281AD107F020F8B0B140881D
S315000026F00006400E00F001052570FF22182119483A
S3150000270007F066F8012D0AD1FFF7BEFF052806DBA4
S31500002710BDE83440CC21144807F07AB8207031BDAA
S3150000272080B5FFF7CFFFBDE8014006F0FFBF70B5EB
S3150000273004460D461646FFF7C5FF0420FFF799FF2E
S3150000274032462946204607F022F8044600F00FF8E4
S31500002750204670BD93BD032094BD03206C12060075
S31500002760BD4F0320FC9E0320601206008346022014
S315000027707FE780B5FFF7A6FFBDE8014007F016B872
S3150000278080B59749022003F017FEFF20FFF7ABF94B
S31500002790FF2004F078F9FF2007F057FC06F0BAF99D
S315000027A000F06BF8FEF7A9FB8E490020088001BDFA
S315000027B000B585B000F095F8009800F0010005B06E
S315000027C000BD10B588B001A9684606F03FFC864CEE
S315000027D09DF80F00A0700822BDF80C00208001A90A
S315000027E0201DFFF7DFFD9DF8140060730022002115
S315000027F02046FEF783FB7B490020088008B010BD09
S3150000280080B5684606F02CFC932809D17748006805
S3150000281000788DF80000012804BF02208DF8000022
S315000028209DF8000002BD70B590B004460D461646F0
S315000028302C2104A804F0D8FD8DF81240ADF81060E4
S3150000284005A8FEF701FB00F04CF80098ADF836003D
S31500002850FFF7D6FF8DF8380000F046F8294604A8A1
S3150000286007F01EFE010004D15E490A8842F4807218
S315000028700A8010B070BD08F0C6B91FB508F002FA9C
S31500002880032400B1072408F0FFF908B144F0080456
S31500002890204608F0BBF9564808F0C2F9554808F03A
S315000028A0C2F9FFF785FFD8B15349022003F084FD32
S315000028B04E4800680078012808BF022007F083FE12
S315000028C008F0E4F900F00DF8009840F08000009060
S315000028D0684608F08EF900F007F8032003F0EAFCDA
S315000028E01FBD684608F07AB970B590B005A843498F
S315000028F0282206F057FC06F0CDF908B100201BE0AF
S3150000290001A803F0ADFC04003D4D3E4E03D00094FB
S3150000291032463D4B0BE005A8FEF7EEFA05A901A8E5
S3150000292007F018FE040006D000943246374B2946BD
S31500002930022003F041FD204610B070BD10B52948B5
S31500002940018841F40071018003F0E8FB01280CBF07
S315000029500124002408F056FA28B102462C49022028
S3150000296003F02AFD00E024B108F003F9BDE81040A9
S3150000297006E710BD1FB504461A480088810504D530
S31500002980912C2CD1FFF7FCFE1FBD8F21084211D0E0
S31500002990902C02D1FFF715FF1FBD912C1FD002907E
S315000029A001941C481C4B174A1C490090022003F056
S315000029B003FD1FBDFFF795FF902C10D10098C007AF
S315000029C00DD500984008400000900020019002902C
S315000029D0ADF80C00684608F00CF908F0BEFC1FBD07
S315000029E0F4CE0500C2A903206C7303208876032069
S315000029F0008810020070EF05C4CE050010CF050058
S31500002A0038CF05004CCF050054CF05006CCF05002C
S31500002A1084CF0500ECCF0500D4CF0500B4CF050068
S31500002A2080B508F0F0F8BDE8024000F0FE0008F0BE
S31500002A30EDB810B508F0E7F840F0010408F022F907
S31500002A4008B144F0040408F01FF908B144F0080482
S31500002A502046BDE8104008F0D9B870471CB5DFF82D
S31500002A606C4C0A21204604F0BFFC6021DFF8600CA4
S31500002A7004F0BAFCA020608001AB05208DF80400AC
S31500002A801022202000902121F220FFF78EF913BD9D
S31500002A9000B587B0DFF8341C002008708DF81800E8
S31500002AA000234FF0FF30049004AA00F0AEF9002195
S31500002AB009F0A0F807B000BD10B5DFF8104C207A79
S31500002AC0C00788B012D54FF0FF30049000208DF873
S31500002AD0180009F0F7FD0020207203900290019083
S31500002AE00090002304AA002109F084F8DFF8FC1BFB
S31500002AF00020087008B010BD80B5FFF7C9FFDFF8E9
S31500002B00F01B0020087001BD2DE9F04700F0010917
S31500002B10C0F342070C460109400900F0010A00F023
S31500002B206DF9154601F0010827D1DFF8A06B307862
S31500002B3020B109F067FEF18888421ED1B9F1000F75
S31500002B4019D009F05FFEF08001203070A02070805F
S31500002B507770F90786F805A046BF4FF47A7161438E
S31500002B60DFF8901BDFF8880B06F0F3FBB8F1000FD7
S31500002B7003D0357101E0FFF78BFF0120BDE8F08738
S31500002B80002070472DE9FA4F8FB00646914600F0B7
S31500002B9093F8700A00F003008DF80400C6F34110A4
S31500002BA08DF81800F00ADFF850BBDDF884A01A9CF7
S31500002BB000F00708DFF8440B002730400828DBF850
S31500002BC00000007908BFBA46042808BF0127B9F1FA
S31500002BD0000F08BF0DF1280904B90AAC1F9D05B9FD
S31500002BE00AAD9DF840000F9A00904B4606F007018B
S31500002BF007A809F0C3FE00285AD0DFF8041B0120FD
S31500002C0003F0E0FBDBF8000000684079F2284FD1C2
S31500002C109DF8040001284BD09DF82400010018D02F
S31500002C20022845D10022082107A803F00AFB002844
S31500002C303ED106F0180018283AD0A8F1050002285F
S31500002C4036D39DF8180068B9F0060BD487BB8520EB
S31500002C502CE0079860B310F1070FEAD310F1010FCB
S31500002C6026D1E6E71E98CDF814A0049003950294A9
S31500002C7007A920981B9B9DF8182001901C9800908E
S31500002C8030460AF001FA38B1DFF8401A4978890768
S31500002C9002D5FFF7FDFE0BE0310709D540B909F073
S31500002CA022FFFF2808BF002F02D18920FDF7DEFE94
S31500002CB0012011B0BDE8F08F0AA8142104F094BBDE
S31500002CC02DE9F0438FB00646894690461C46FFF72D
S31500002CD0F3FF169901B90AA900F090F84CD1189D96
S31500002CE01798199FF02D48D0F32D5ED10020002CA7
S31500002CF08DF8240007903BD10AF048FC814539D174
S31500002D00DFF8E859DFF8C449287810B1207A80073F
S31500002D1067D505F0C1FF0B3840F010008DF81000A4
S31500002D20F32300200390029007AA04A80190002133
S31500002D300120009008F05EFF0120207205F0ACFF34
S31500002D4008F10B0188420AD0012000FA01F10022A5
S31500002D50032009F047FC207A00F0FD0002E0207A0B
S31500002D6040F00200207241F28831284606F0F1FA5E
S31500002D70012037E0FFF7A0FE33E016F007028DF8DA
S31500002D80182008BF049401D000F02FF80AF0FEFBCB
S31500002D90814504D1002003900290F02318E000F052
S31500002DA034F8002304AA002119E0F72D03DAA5F16F
S31500002DB0B002102A15D216F003028DF8182008BFAB
S31500002DC0049401D000F011F80020039002902B46E5
S31500002DD0781C01903878009004AA0021012008F0A0
S31500002DE009FF00200FB0BDE8F08302228DF81820FD
S31500002DF08DF81900082204A806F0C4B9DFF8F8080F
S31500002E00006800684079F22870470020039002901D
S31500002E10019000907047002070472DE9F84F8046DA
S31500002E2008F104068946326892B200214846FDF749
S31500002E30B0FE307B010009F1020404D1726800F093
S31500002E40A4F8241D08E0022806D1082208F108018A
S31500002E502046FFF7A7FA0834307B022804BF707BB0
S31500002E6004F8010B3068800403D5328A00F099F823
S31500002E70A41C3068410410D5B07C04F8010B002175
S31500002E80726900F083F8251D102208F11C012846FE
S31500002E90FFF788FA05F1100405E0800603D572698C
S31500002EA000F073F8241D307840064FF00C0A19D54F
S31500002EB00025274604F8015B00F06BF803280ED1C5
S31500002EC008220BF102012046FFF76CFA0834BBF822
S31500002ED00A2000F066F83878401CA41C38706D1C77
S31500002EE0022DE9DB3068C00517D50025274604F812
S31500002EF0015B00F04EF802280CD1BBF8022000F06E
S31500002F0050F8A41CBBF8042000F04BF83878401C9D
S31500002F10A41C38706D1C022DEBDB08F1440001780F
S31500002F2004F8011B317801F0180118291CBF4078FC
S31500002F3004F8010B3068010403D5020C00F031F8E7
S31500002F40A41C3068C0031BD50026254604F8016B77
S31500002F501AFB06F0404400F12C07387803280CD100
S31500002F600822B91C2046FFF71DFA08347A8900F0BA
S31500002F7018F828780A30A41C2870761C022EE7DB85
S31500002F80A4EB090080B2BDE8F28F00212046FDF7D0
S31500002F9005BE1AFB05F0404400F12C0B9BF800001F
S31500002FA0704700212046FDF7F4BD2DE9FA4FB3B076
S31500002FB000F007018DF80410C0F3C10814461CA8E0
S31500002FC0FFF77BFE0025002704B91CACDFF82807B5
S31500002FD000680179002947D100684079F2285DD15F
S31500002FE000F09AF8002859D19DF88400FF2818BFF0
S31500002FF06D1C7F1CFFB2052FF2DB9DF8F800DFF891
S31500003000BC68DFF8BC98DFF8BCA80690B8F1000FE2
S31500003010EDB227D19DF8D000339A9DF804100090A8
S31500003020234607A809F0AAFC002871D007A809F0D2
S3150000303036FD0746FF2F1AD000F072F801950120E1
S3150000304003905346FF2000F06FF800F065F828BBA8
S31500003050308809EB000121A8FFF7DFFE3188401810
S31500003060308053E0B8F1010F52D1A84207D300F0E7
S3150000307057F803900195069802908B2041E000F0E6
S315000030804FF80195FF2003905346069800F04CF840
S3150000309000250024002700F03FF808B1002038E0A2
S315000030A09DF88400FF281AD06D1C9DF8F800E9B23F
S315000030B0884214D207A921A8FFF7AFFEB6F800B0E0
S315000030C0804608EB0B0052280DD2424607A909EBB1
S315000030D00B00FFF767F908EB0B003080641C7F1CC0
S315000030E0FFB2052FD7DB89F80640FDF7B8FC742838
S315000030F00ED100F015F80390EDB2069802900195F6
S315000031000020009053460B2200F012F8FDF7A7FCB2
S31500003110012035B0BDE8F08F21A9384609F069BC19
S31500003120002005900490704702900B22002000902A
S3150000313021210120FEF77CB82DE9F04F044600203E
S31500003140F22C08BF2129A7B04FF000094CD1112A53
S3150000315002BF802B3099002946D1319C062C43DBD7
S315000031601120FDF721FFDFF85467DFF854A73088F8
S31500003170071DBFB2B84600256946284609F039FC46
S3150000318008B1002030E09DF80000FF2813D012A9F6
S315000031906846FFF742FE834607EB0B00844202DADD
S315000031A04FF089090BE05A4612A90AEB0700FFF710
S315000031B0F9F85F44BFB26D1CEDB2052DDCDB5FEAAA
S315000031C00900A7EB080409D10020FDF7DEFE432025
S315000031D0FDF7DBFEA0B2FDF7E7FE01E0FDF7D5FE49
S315000031E0308820183080012027B0BDE8F08F2DE907
S315000031F0F043DFF8D874387889B0894615461E46FC
S3150000320078B196F80880B8F1000F04BF306800283E
S3150000321007D0159CE02C18BFE22C02D01398C007EB
S3150000322003D5012009B0BDE8F0830AF0AFF90146E5
S315000032300691CDF81C900394009519991098169A4A
S31500003240059148EA001418990491089201903246B3
S3150000325014991198029144EA8010737A316840F407
S31500003260006009F02DFBFEF73DF80446F2202071C0
S31500003270607105200AF0B1FA787920B1F98800204A
S31500003280FEF726F80AE0E08840F00200E0800C3DF8
S31500003290A57230460CF032F800F08AF800F032F9E8
S315000032A0BFE7400900F00600C0F103004007000E2A
S315000032B070472DE9F04F1F468BB08946397A904604
S315000032C00A0004BF3A68002A71D00A0006D13A689B
S315000032D012F1070F02D312F1010F68D1022908D1AA
S315000032E000217A5C1AB9491CC9B20829F9DB0829F8
S315000032F05DD0169900295AD1179C3A7AE10748BF42
S3150000330042F008027E28159918BF7F2806D142F49C
S31500003310007001B1042140EA811001E042EA811007
S31500003320149DDFF8A8A31C9EDDF874B0290141F4B2
S3150000333000610843ADF824009AF80500A8B10AF028
S3150000334025F900F03BF800F049F8E0074CBF2020D3
S3150000335005200AF042FAFDF7C5FF00F0BAF8002092
S31500003360BAF80610FDF7B4FF1FE00AF00FF900F0F7
S3150000337025F8A8F10C0500F031F8FDF7B3FF00F0D1
S31500003380A8F88572C18841F00201C180E00705D521
S315000033904846FFF786FF203080B200E005200AF09D
S315000033A01CFA00F0A0F900F003F800F0ABF88CE08E
S315000033B00146EAB24FF6FD70FDF792BF0690CDF8D2
S315000033C01C90CDF814B004960195CDF800803A46CD
S315000033D09DF864001A990390089170471898029016
S315000033E07B7A3968BDF8240009F06ABA10B500E0A6
S315000033F010B58AB0159C0994149C0894139C0794E4
S31500003400129C0694119C0594109C04940F9C0394A2
S315000034100E9C02940D9C01940C9C0094FFF749FFAE
S315000034200AB010BD2DE9F84FA84E8AB0884631780B
S3150000343000291EBF317A01F003010129924644D0CA
S3150000344008217E281598149C1A9F1C9DDDF874B0DF
S3150000345008BF4FF40271800140EA041040F4006096
S3150000346040EA0109707978B10AF090F800F035F871
S31500003470FDF738FF00F02DF820200AF0AEF9F188AC
S315000034800020FDF725FF1EE00AF080F800F025F881
S31500003490FDF728FF00F01DF8AAF10C04C18884721C
S315000034A041F00201C1804046FFF7FBFE203080B2AA
S315000034B00AF093F90A980BF021FF0146E2B24FF6A3
S315000034C0FD70FDF70DFF00F01DF801200BB0BDE803
S315000034D0F08FF22101714171704708970690CDF87F
S315000034E01C80CDF814B004950194CDF800A00023FB
S315000034F09DF8640003900022189802900021484627
S3150000350009F0DEB900200AF068B92DE9F04F99B04C
S31500003510884629980146FF2993461F4600F0D28027
S31500003520DFF8A42312684823594311444A6842F439
S3150000353000724A6042F480624A6006A909F059FAAC
S31500003540002840F0BF80397A0C2306AA43431A4468
S3150000355092F82C20130014BF032A41F0080103D06F
S31500003560022A08BF41F02001401C0228ECDB9DF82E
S315000035701C00279D259C0006229844BF41F010019F
S3150000358089B241EA8012239942EA0121E02D41F4F1
S31500003590A04118BFE12D1FFA81F902D14B490978E4
S315000035A019B1E10748BF49F40069DDF898A000B9F0
S315000035B0DA4609F0EBFF0490CDF814803A462B98D2
S315000035C003902A9802900195CDF800A07B7A39687D
S315000035D0484609F039F900254FF6FC790C2106A872
S315000035E0694300EB010A0AF12C063078010018BF86
S315000035F0032818D1FDF776FEFFF76BFFE0074CBFF7
S31500003600202005200AF0E9F87089484506DB0AF112
S315000036102E0009F02DFF4845B8BF70817189002042
S31500003620FDF756FE22E0022822D1FDF75BFEFFF7EA
S3150000363050FFABF10901817200F04CF805D5404608
S31500003640FFF72FFE203080B200E005200AF0C5F813
S31500003650B1884FF6FF70814202D100F044F801466E
S31500003660ABF109027088D2B2FDF719FEFFF74AFFE7
S315000036706D1C022DB2DB9DF81C00000622D5FDF75D
S3150000368031FEFFF726FF80F80AB000F023F805D5D3
S315000036904046FFF706FE203080B200E005200AF023
S315000036A09CF80798800448BFBDF82C4002D400F06F
S315000036B01AF8044600F017F85A462146FDF7EFFDC2
S315000036C0FFF720FF012019B0BDE8F08FC49B03204F
S315000036D0D09B0320C18841F00201C1809DF85C1097
S315000036E0C172E007704738460BF008BE389C0320CD
S315000036F0309C0320007102000C77032008000200B2
S3150000370098000600012070472DE9F74F94B09846BF
S315000037109DF8940000906D48007AC00702D5009885
S31500003720E32816D1209C200002BF684800780028B4
S3150000373010D1404609F0B3F9FF280BD001A909F0D2
S3150000374058F9002805D1029840043DD49DF81A0086
S3150000375000287AD19DF850000A909DF85000002864
S315000037601CBF0A987C2805D07F286ED15748007860
S3150000377000286AD055480078229DDDF89090DDF843
S3150000378098A0279E289FDDF8A4B0002856D02800D0
S3150000379003D000F070F8FFF72AFD0A987F2808BFCB
S315000037A0032C2FD09DF89400E02826D01BD3E228C6
S315000037B00BD002D3E3280FD015E0E12000F048F843
S315000037C000F06DF8FFF712FE3FE000F041F800F060
S315000037D066F8FFF70DFE38E000F03AF800F05FF803
S315000037E0FFF720FE31E00A997C2909D1A0F1E40116
S315000037F00C2924BFB038102823D200F03CF81AE078
S315000038007F291ED19DF894009DF858209DF85410EC
S315000038100590CDF824B008970796CDF818A0CDF8F6
S3150000382010900295009443469DF88C0003909DF8F5
S31500003830840001907E20FFF73CFD06E00098E22818
S3150000384003D000F018F8FFF760FE17B0BDE8F08F60
S315000038500590CDF824B008970796CDF818A0CDF8B6
S3150000386010900295009443469DF88C009DF85820D0
S315000038709DF8541070479DF894009DF858209DF8C7
S3150000388054100590CDF824B008970796CDF818A0E7
S31500003890CDF810900295009443469DF88C00039055
S315000038A09DF8840001909DF85000704728B907489C
S315000038B0007AC00748BFFFF7FFB870479AAE0320EB
S315000038C034760320A4000600EC490320C49B0320A1
S315000038D0912800D0704780B500F023FF18B9BDE8E5
S315000038E001400BF02FBE01BD10B582B0059C1CB186
S315000038F0049C009404F0B0F913BD10B5DFF8302A2B
S31500003900002305E0C45C6240DFF8284A62435B1C82
S315000039108B42F7DB104610BD10B507280C4607DAB8
S31500003920C2B22046BDE81040142326210BF014BF76
S3150000393010BD072805DA0A46C1B2142326200BF06B
S315000039403BBF704780B5902804D10BF0D7FFBDE888
S31500003950014053E301BD30B585B00024DFF8D859E6
S3150000396000208DF8010069462046FFF7D5FF9DF837
S31500003970010058B19DF8000020B91821614329447F
S3150000398001200874641CA4B2072CE9DBDFF8AC093B
S31500003990048000F033FB05B030BDDFF8A0090088D5
S315000039A070472DE9F04F002497B0A046A146A246E5
S315000039B000250CE0FAB2092A07D20020C6E9020067
S315000039C0194606F10800FEF7EDFC6D1CADB2DFF8F6
S315000039D06C090088854280F2D38005A92846FFF746
S315000039E09BFF0CF03FF81822DFF84C196A438E183B
S315000039F03168471A9DF814000028E6D19DF8150095
S31500003A000100E2D0FDF7D7FF0028DED0BDF8200088
S31500003A104FF47A7148438742D7D3307C40B9BDF81A
S31500003A2022000100D1D04FF47A7148438742CCD3AB
S31500003A3004A80390212002900EA80190BDF81C0056
S31500003A409DF81A30BDF81820BDF8161000909DF8A4
S31500003A501500FEF74FFC0028B7D19DF81000FDF7C2
S31500003A60BAFC0028B1D19DF8100021220EA905F05C
S31500003A702DFC0700A9D0FA1CDCB120799DF8153081
S31500003A806188834204BFBDF816308B420FD19DF882
S31500003A901A30DB094B4504BFBDF81C30434506D13F
S31500003AA0DFF89C381B88D2B2D218924543DA00F070
S31500003AB071F8FDF717FC04469DF81A00BDF81C20A6
S31500003AC091A100915FEAD01914BF00200820BDF82B
S31500003AD016100A23FDF7A1FB9DF8150020714FF083
S31500003AE0FF0A4FF48A50E0804FF0000BBDF81C80AF
S31500003AF00AA9584604F08EFE002802BF9DF8290048
S31500003B009DF81510884202BFBDF82A00BDF81610B0
S31500003B1088420BD19DF835109DF828002246FDF706
S31500003B200BF852468246924588BF92460BF1010B2E
S31500003B30BBF1030FDCDBBDF81800FDF735FA9DF885
S31500003B401000FDF722FA39460EA8FDF75EFA0020AE
S31500003B5030740BF087FF30600EAB002000909DF8AC
S31500003B601000412818BF42287FF424AF791EC9B23D
S31500003B700DF13900FFF7C1FE00906B4604221CE7E9
S31500003B801CB16188207900F005F800F037FA17B00B
S31500003B90BDE8F08F10B50C46FCF784FC08B9032C81
S31500003BA00BD1DFF8A007FDF75DFBB42808BFFDF7D2
S31500003BB063FBBDE81040FDF774BB10BD2DE9F04F67
S31500003BC0044687B0607D277D0025002807BF0820B2
S31500003BD04021002080218DF8041007234AA100917E
S31500003BE02168228A4988FDF718FBA289BFB2F81C12
S31500003BF0904280F28480A068C15D8DF805107F1C1C
S31500003C00B9B2FDF72FFA80469DF80500BF1C10B12A
S31500003C10012867D071E0A068A289BFB24FF0000BFF
S31500003C20C65D7F1CB9B2FDF71DFA8146BF1C00F0C8
S31500003C306DF882463046FDF743F8BF1C70B9304632
S31500003C4005F034FB8DF800000346A289A068B9B2DE
S31500003C50FDF7F0F983469DF800003F182068218A99
S31500003C609DF804300091424641884079FDF77AFC80
S31500003C7000281EBF8078B0428D2625D1482E18BF59
S31500003C804C2E03D0502E18BF512E01D18C261BE08E
S31500003C90206840798DF8090020684088ADF80A0050
S31500003CA0ADF80C809DF804008DF80E00208AADF862
S31500003CB01000ADF81490ADF816A0CDF818B002A813
S31500003CC000F025FA060090D03046FDF75EF99DF823
S31500003CD00500FDF75AF94046FDF766F90125852EE0
S31500003CE083D110E000F012F803469DF80420414607
S31500003CF0204600F0B1FABF1CE4E78526E4E715B9D3
S31500003D000020FDF742F9B1E000000000A289A0689A
S31500003D10B9B2FDF7A7B92DE9F04F044687B0267D65
S31500003D20607DDFF81896B4A10028009107BF08202F
S31500003D304FF0400800204FF080082168228A498809
S31500003D400923FDF76AFA08E08620FDF71EF92846E2
S31500003D50FDF71BF93846FDF727F9A289B6B2F01C24
S31500003D608242C0F28380A068855D761CB1B2FDF701
S31500003D7079F9B61C012D07460ED82068218A0091D4
S31500003D804346418840793A46FDF7ECFB5FEA000A74
S31500003D90DAD04FF0000B03E08520D6E70BF1010BDC
S31500003DA05FFA8BFBB9F800205846904259D201A918
S31500003DB0FFF7B2FD9DF80400A84201BF20689DF8F8
S31500003DC0051042799142E9D1BDF806104288914228
S31500003DD004BFBDF80810B942E0D19DF80A1041456C
S31500003DE002BFBDF80C10228A9142D7D19DF804106B
S31500003DF049B1BDF81010E288914202BF9DF8121039
S31500003E0000798142CAD10020FDF7BFF82846FDF7A8
S31500003E10BCF83846FDF7C8F815B1012D23D09CE74C
S31500003E209AF80200FDF7B1F8BDF81000FDF7BCF8EE
S31500003E30BDF81200FDF7B8F89AF80200FCF740FF4B
S31500003E4000288AD19AF8020005F030FA059F054647
S31500003E50E8B20028E3D0F8B2FDF797F83F0A6D1EE6
S31500003E60F6E78B2071E7BDF8140074E7FCF7F7FD61
S31500003E70012007B0BDE8F08F80B503E0401E80B298
S31500003E8000F004F9DFF8B40400880100F6D1DFF889
S31500003E90B8140020087002BDDFF8A0341B88014664
S31500003EA0B120994200D3704780B5084600F029F941
S31500003EB0002002BD2DE9F04788B00646109CDFF8C9
S31500003EC07CA40F4690469946002500E06D1CBAF882
S31500003ED00010A8B2884252D202A9FFF71DFD9DF834
S31500003EE00800002804BF9DF80900B042EED1BDF8D5
S31500003EF00A00B84204BFBDF80C004045E6D19DF863
S31500003F000E00484504BFBDF81000A042DED10020D7
S31500003F100190119F384605F0C9F9129C412F0146C0
S31500003F2018BF422F204608D1FDF7C0F80146601C95
S31500003F30FFF7E3FC0190042101A8ADB21823DFF8D6
S31500003F40F82300916B43D618D6E90223FCF7C9FA89
S31500003F5004460D463846FCF7B3FE012804D100227C
S31500003F60954208BF944206D148B9002106988D4271
S31500003F7001D8844203D30120307400F03FF808B022
S31500003F80BDE8F08710B542784B789A4202BF428866
S31500003F904B889A421AD182888B889A4202BF8279CC
S31500003FA08B799A4212D102890B899A4202BF027812
S31500003FB00C78A2420AD13AB182898B899A4202BF11
S31500003FC0807B897B884201D1012010BD002010BD75
S31500003FD038B5DFF86853298807294FF6FF7407DAE2
S31500003FE00C4601462046FFF7A4FC2888401C288082
S31500003FF0204632BD00000000000000002DE9F04F11
S315000040004FF0FF3B85B0D9460026CB4FCB4C4FF443
S315000040107A7804E0681A484598BF8146761C21885C
S31500004020B0B2884225D200F069F89DF80000002859
S31500004030F4D1BDF80C0008FB00FABDF80E0008FB31
S3150000404000F50BF00FFDB6B2182101FB06F2B958C8
S315000040503A44411A127C584632B18A4501D20020B0
S31500004060D9E7AAEB0100D6E7002DD4D08D42D1D2F4
S31500004070F5E719F1010FB44803D04946FEF78DFA6A
S3150000408001E00021017005B0BDE8F08FF0B5AB4D41
S315000040902988884291B004462ED200F02FF80020DD
S315000040A08DF801002888401E81B2A142288002D1E5
S315000040B0694620461BE005A980B2FFF72DFC28883B
S315000040C09D4E18277843304405A990EC060B0AA8A4
S315000040D080EC060B2046FFF72CFC07FB04F00AA930
S315000040E0304491EC060B80EC060B28886946FFF7F6
S315000040F020FC6846FCF7F1FE11B0F0BD6946FFF7FB
S315000041000BBC80B5FFF7C2FFBDE8014076E72DE99D
S31500004110F042044686B02089884D2E880090A37907
S31500004120A28861886078FDF71DFA4FF0010908B989
S3150000413086208EE0E089010004D0A189884238BF3C
S315000041408720F6D3002700E07F1C2988B8B2884272
S3150000415022D201A9FFF7E0FB9DF80400002802BF68
S315000041609DF8050061788842EED1BDF806006188A9
S31500004170884202BFBDF80800A1888842E4D19DF8B4
S315000041800A00A179884202BFBDF80C002189884245
S31500004190DAD14FF000093E46E0894FF6FF718842BA
S315000041A007D1B9F1000F04BFB0B2FFF7AAFF002094
S315000041B04FE00027002804BFA0898842B6B20AD182
S315000041C01422214601A8FEF7EDF801A80BF0E7FB43
S315000041D008B1012702E0B9F1000F16D0072EA8BFDB
S315000041E0892036DA00208DF8040060788DF8050005
S315000041F06088ADF80600A088ADF80800A0798DF8B3
S315000042000A002089ADF80C003FB9A089ADF810006E
S31500004210E089ADF812002069059001A8FCF75DFE63
S31500004220040015D12888444F864204BF401C2880CC
S31500004230182000FB06F50BF015FC78517A190020C2
S31500004240C2E9020001A93046FFF773FBFFF7D6FE6D
S31500004250204606B0BDE8F0822DE9F047374D86B01E
S315000042602E880446884691469A46002700E07F1C21
S315000042702988B8B2884229D2FFF740FF9DF800008E
S31500004280012801BF20689DF8011042799142EED1C4
S31500004290BDF802104288914204BFBDF804104145A2
S315000042A0E5D19DF80610494502BFBDF80810228ADF
S315000042B09142DCD1BDF80C10E288914202BF9DF814
S315000042C00E1000798142D2D13E461CE0072EA8BFCF
S315000042D089202ADA01208DF80000206840798DF8BF
S315000042E0010020684088ADF80200ADF804808DF822
S315000042F00690208AADF80800E088ADF80C0020682A
S3150000430000798DF80E00ADF810A06846FCF7E5FDC3
S31500004310040009D12888B1B2814204BF401C28801C
S315000043206946B0B2FFF705FB204606B0BDE8F08748
S31500004330C59D1C819301000188660320E6BC03200D
S315000043409AAE0320E93800001C7D03200269002193
S315000043501172FF2102695172BF21026911708F210A
S3150000436002695170AF21026991707F210269D17093
S315000043703721026991710F210269D1718721026982
S31500004380117100210069417101200F4902F014B832
S3150000439080B5FF208DF800004B208DF802008DF8C7
S315000043A0010068460CF07BFD00280CBF0749084950
S315000043B0012002F001F801BD002814BF0548064897
S315000043C00168491C0160704708170600301706008F
S315000043D058170600149F0320189F032010B50446A3
S315000043E0FFF7B4FF05202071042060710020A07142
S315000043F010BD014870470000D448032080B50CF07A
S3150000440054FE401E8041C00F02BD704780B500209B
S315000044100CF069FE38B90CF0CFFE0DF023F9BDE8BB
S3150000442001400CF087BE01BD00B5A1B040887D22D9
S31500004430694604F033FD01001CBF694603F0D6F857
S3150000444021B000BD80B50B460146002218460EF08D
S3150000445059F9010001D1182002BDBDE8084001222A
S3150000446001210EF02FBB80B502F0C2FFBDE802406D
S31500004470012010B5040014BF084800200EF022FCED
S3150000448050B1002CBDE8104014BF054A054A03464A
S315000044900549022001F090BF10BD000018FD05007F
S315000044A000FD05000CFD0500D4FC050038B50EF036
S315000044B0A1FC0EF0BFFC70B1FCF7DBFC08B3154C99
S315000044C0207804F0F9FF0546207805F036F8D5B1D6
S315000044D0FCF7CEFC31BD0EF094FC90B108F07FFFE6
S315000044E000280CBF4FF0FF3001F033FE009000991A
S315000044F0094804F08AFF009018B1002168460EF0C2
S31500004500FFFC0EF01EFD31BD044A012102200EF013
S31500004510CABD0000DFB6032078450320BCFF0500B6
S3150000452080B500F094F8BDE8014094E0FEB504467D
S3150000453001F04EFD0646204601F05AFD00229DF888
S315000045400010064203D186F00103184301D10198F9
S31500004550027820464FF6FF7506B321281EDA42235D
S31500004560022A414E09DA5A43324432F81030AB423D
S3150000457014D05B1C22F8103010E00FD1002206EB9D
S31500004580400703FB02FC37F80CE0AE451CBF0EF1FA
S31500004590010E27F80CE0521C022AF2DB334F344B93
S315000045A037F8102033F810C09445B641F643F60F9D
S315000045B0AC451CBF0CF1010C23F810C0092818BF2C
S315000045C00B280AD1B3F814C0BF8A01EB0C0EBE4506
S315000045D0AEBF9F82614499820DE01D280BD133F84E
S315000045E0107001EB070C9445BDBF6918C91923F873
S315000045F0101023F8102033F81000904203D316B998
S315000046002046FCF72EFC00261A48815DA14204D004
S31500004610761CF6B2112EF8DBF7BD112E16DA02F073
S31500004620FAFD044614480078844203DBDD21134872
S3150000463005F0EEF82221124811FB04F1084430F887
S315000046401610A9421CBF491C20F81610F7BD5221AE
S31500004650074802F0C9BEFF225221044805F0B8B847
S31500004660024A22F81010704748A00320D09F03206A
S315000046707C9F0320081B0600C74F0320F81A06007C
S3150000468024A00320DFF8941AC873704770B5DFF8CA
S31500004690905ADFF8906A29783068382461430144DB
S315000046A08A78112A04D0B421DFF87C0A05F0B0F824
S315000046B02878316814FB00F408194122827070BD15
S315000046C010B5022002F0AAFD02F0AFFDDFF8540A91
S315000046D0DFF84C3A01681C78DFF8402A382044435A
S315000046E008194178042903D1107C401D107405E097
S315000046F04FF47A7102F1180004F02BFEBDE8104069
S3150000470002F094BD80B5DFF8240A0DF06EFDDFF8E7
S31500004710200A0DF06AFD0EF0D9FDBDE801400EF04D
S31500004720F6BDDFF8000ADFF8F829016813783820AB
S315000047304343C818807833281CBF4328532801D127
S3150000474001207047002070472DE9FF4E0FF01FFB38
S3150000475009F01DF8002867D0DFF8C0490020207650
S31500004760DFF8D00901790C3001F0E2F9207D18B1AB
S315000047700EF0C6FD0020207500212173002700F0F1
S3150000478055F80FF0FDFF0FF075FBDFF8AC09DFF809
S315000047909069DFF8A8B9482500F1E40900F1E20ABA
S315000047A09BF80010F8B288423ED202F03EFD307807
S315000047B068434FF6FF723AF80010914218BF012184
S315000047C007D100220821484401F03BFD411E8941E2
S315000047D0C90F94F8202002F001020A4220D0307856
S315000047E0684308223AF80010ADF8081009EB0001FA
S315000047F06846FDF7D7FD0A230A2201F0EDF9DFF836
S315000048002409016896F800C0382010FB0CFC01EB67
S315000048100C0000F12C0102230B22002010F0D4F929
S3150000482002F004FD7F1CBBE7BDE8FF8E10B5DFF884
S31500004830F008DFF8F02801781368382010FB01F043
S3150000484018444078032818BF04280CD14820DFF804
S31500004850E828414350184FF6FF72B0F8E210914233
S3150000486008BF032008D001F0D3FB044601F0D9FBB2
S31500004870214603F05CFF022001F0F8FB10F052FA2B
S3150000488000F0FCFF0FF0A8FF01F03EFA20B1BDE8F2
S315000048901040002010F0EDBC10BDF8B5DFF87C48E4
S315000048A0DFF87C78DFF87C68E07338253978306883
S315000048B0694301448878032818BF002823D0332889
S315000048C018BF432819D100F01FF83978306815FB56
S315000048D001F542195178032918BF042907D1801C14
S315000048E003214155E07BBDE8F24002F009BDE07BC3
S315000048F002F006FDBDE8F14098E721208870BDE88A
S31500004900F14006F0ECBAF1BDE37B132253A103207C
S3150000491011F016B938B501F064FA38204443151978
S315000049200021A9704FF6FE7008F03CFE4FF6FF70AE
S3150000493008F054FEDFF8E447FFF7E6FFE07BBDE84A
S31500004940324002F0DDBC00002DE9F8430546DFF8F1
S31500004950000CDFF8CC67DFF8CC9711F047F98046FA
S315000049602B4618223DA1032011F0EAF8002088F812
S31500004970000038273178D9F80000794308447024BC
S315000049804178032918BF042924D00024290007D11F
S31500004990416B91F82400E8B181F824409D2017E08E
S315000049A0FF2D06D04FF47A7045432946404604F061
S315000049B0D0FCD9F80010327801F1340017FB02F769
S315000049C0C15991F8240028B9012281F824209C209D
S315000049D002F096FC00F052FF2046BDE8F283DFF8B5
S315000049E04407DFF83C270168137838204343C8188A
S315000049F0416B91F82400704710B5DFF8540B11F0A5
S31500004A00F5F8DFF82017DFF818370A681C78382120
S31500004A104C4311194A6B92F8241009B9002010BDB5
S31500004A2004F0A4FC4FF47A71B0FBF1F0C0B210BDF3
S31500004A3038B504F08CFD0446DFF8141B11F0D7F8E6
S31500004A400546FF2818BF02F0F0FB00202070FFF794
S31500004A507BFFFF2D01D001F089BA31BD4242000033
S31500004A6038B50D4688B00446686907901622297C39
S31500004A700691E8890590297B0491E87A0390032042
S31500004A8095F90A1002912B890BA1019300952346F3
S31500004A9011F056F801200EF083FC287B00280CBF8D
S31500004AA04FF6FE7008F072FD2B46224609B0BDE8AF
S31500004AB0304001460120AAE0424238705742424245
S31500004AC0574244002DE9F047DFF85496DFF8546664
S31500004AD099F800C0884631681D4638248B1C14FBA3
S31500004AE00CFC824613F80C0000284BD1170049D065
S31500004AF0042F47DC11F02BF9002843D102F097FB75
S31500004B0000283FD102F095FB08B1042F3ADB287B41
S31500004B10032817D14FF6FE71884515D1012F08BF1E
S31500004B204FF0000810D0022F2CD108F02FFD4FF6C1
S31500004B30FC71884202DA08F029FD01E011F00CFB55
S31500004B40804601E0012F1DD0BAF1000F0CD0287B62
S31500004B5003280CBF012100213846012F18BF002071
S31500004B6011F0C3FD010030D12946404600F07BFF1D
S31500004B7001002AD102F057FB02F03AFB20B102F005
S31500004B8058FB08B1702020E0306899F80020811C9D
S31500004B9014FB02F4085D332818BF532803D0DFF84E
S31500004BA07C1500208873384600F020FF00214FF660
S31500004BB0FF7001F01FF9DFF8E417087820B102F062
S31500004BC038FB08B912F0F1FF0020BDE8F08738B5D0
S31500004BD00446DFF8485508222146281DFDF7E2FB6A
S31500004BE0207BDFF83C350228C8BF002028709421BE
S31500004BF02878E9730028DFF82C051C7802680CBFBA
S31500004C0001213121382044431019817031BD38B556
S31500004C101C46FFF757FF010032D1207B03282046B0
S31500004C2002D1BDE832408FE0FFF7D1FFDFF8EC0498
S31500004C300021818101F068FB014640094FF0010324
S31500004C4005D1DFF8680C027803FA01F108E001F0FB
S31500004C501F0140F0180003FA01F1052241EAC06184
S31500004C60062007F0BFFC01000AD0DFF8B814DFF811
S31500004C70B0440B68257838214D43591900228A70B3
S31500004C8032BDF8B586B006460C4617461D460822C4
S31500004C9004F10C016846FDF785FB2189ADF8081083
S31500004CA08DF80A70002221788DF80B108DF80C20F3
S31500004CB06B4632464FF6FE710120FFF703FF0100F7
S31500004CC00AD16846FFF783FF204600F007F8010087
S31500004CD004BFDFF848140D7507B0F0BD10B50446E3
S31500004CE0DFF84004DFF8382401681378382043439E
S31500004CF0C8184078032818BF042806D1E079C107F0
S31500004D0044BF94F9050012F0E8FF207801F022F87C
S31500004D1001F05DF8034622896189002013F0BAF894
S31500004D20040004D09420FFF7B8FD204610BDDFF83C
S31500004D30EC439420E073022002F06FFA00F094FD39
S31500004D4003202074002010BD10B50446002208215F
S31500004D5001F077FA08B1012010BD08F017FC002217
S31500004D604FF6FF7100F0BAFE217C204600F0E0FE0F
S31500004D706269E189207C10F01BF8DFF8A803DFF8F0
S31500004D80A0230168137838204343C81841780129C5
S31500004D9008BF12F0D1FAFFF749FD002010BD2DE93A
S31500004DA0FC4100F0A2F80446907810B910F0CFFF4D
S31500004DB008B1702091E00EF0FCFADFF860832CB1A8
S31500004DC00222214608F12000FDF7ECFA684600F0C1
S31500004DD0DBFF08B1932080E09DF8003014227FA10C
S31500004DE0032010F0ADFE00F0FBFE010075D19DF82A
S31500004DF0000000F0FBFD38683278411C6A43885C8D
S31500004E00012818BF022808D0032818BF042842D159
S31500004E10002001F035F800283DD000F0F8FE386893
S31500004E203278411C6A43885C032814BF042813F0B7
S31500004E302FF9FFF7FBFC012013F052F901004CD1CA
S31500004E403078396868434A1C125C032A18BF042A62
S31500004E500ED198F820309C0708D50522DFF8EC160D
S31500004E60012000F05FF8010036D036E0032A01D0B9
S31500004E70042A31D1084400F12C0102230B2201201F
S31500004E800FF0A2FE00F02BF891F82C20500723D546
S31500004E900FF01EF920E000F022F813228A7000209D
S31500004EA088F80D00012401F02FFA400903D101F022
S31500004EB02BFA84400BE001F027FA450901F024FAA9
S31500004EC000F01F0045F01805844044EAC564052239
S31500004ED02146082007F086FB0020BDE8F6813178E0
S31500004EE0386815FB01F5411970478D4E8D4F3278A4
S31500004EF0396838256A430A44704711E0000000000B
S31500004F0038B504461046032818BF04280D4601D0BC
S31500004F10022032BD00F06AFD29462046BDE8384031
S31500004F20FF2200BF2DE9FC41804616467D487C4A9B
S31500004F3013780D46016838204343C8184178012983
S31500004F403FD08778022F07D0032F3AD15FEA0801B6
S31500004F5002D10079810734D4332001F087F80EF0AE
S31500004F6016FF15F0784F12BF0522DFF840090278C8
S31500004F702946062007F036FB0446A0B9674F38736A
S31500004F8001200EF00DFA08F01DFB78805FEA08009C
S31500004F9014BF022001203870381D00F00DFF0020DC
S31500004FA07873BE7302E0384601F060F85FEA0800E5
S31500004FB03146284602D013F0B3F803E013F0AFF8F9
S31500004FC000E070240194009543462C2204A103209E
S31500004FD010F0B6FD2046BDE8F68100004242000012
S31500004FE0424244420000000010B50DF081FA00F183
S31500004FF01004204613F09AF84FF6FF510140204660
S31500005000BDE8104013F098B82DE9FF47064608F0B2
S31500005010BDFA434DDFF80C912A788246D9F8000094
S315000050203824411C6243885C032818BF042806D133
S31500005030F079C10744BF96F9050012F04EFE3078AC
S31500005040DFF8307C00F086FE7089002100F0D2FE89
S3150000505001F009F94FF0480878B1BAF1000F03D012
S315000050604FF6F8718A4508DB11F076F8297818FBB7
S3150000507001F182467A5A9042F6D0504608F092FAEA
S31500005080308908F0ABFA06208DF8080000F09FFE84
S315000050908DF80900022300200190009002AA2878CA
S315000050A018FB00F00121385A13F091F9064620B991
S315000050B01820FFF7F2FB182021E0287818FB00F8EB
S315000050C0304637F80810154F13F0BEFB3878022823
S315000050D01CBF3046FFF788FF00F06DF8C0B1942082
S315000050E0F873022002F099F8D9F8000000F0B4FC39
S315000050F008D1C82100F02EFA03203874002004B02D
S31500005100BDE8F0874FF4167100F024FA0020F4E7AA
S315000051109420FFF7C2FB0120F1E7000004A803205A
S31500005120C4BD0320D4490320B45F000028BD03207A
S3150000513022BD032028A8032094AC0320C74F0320D8
S3150000514078B587B00C4616461D4630B9204613F092
S3150000515036FD03A912F055FC03A8019007230C990C
S315000051608DF8096001208DF808308DF80B1000903D
S31500005170360A8DF80A60042302AA0121204613F09C
S3150000518026F9060014D0214613F05EFB15B9304609
S31500005190FFF72AFF0D9808B930460AE0204613F0BB
S315000051A03BFE18B1304613F0E0FE01E000F003F8D4
S315000051B0002008B070BD00220021304614F0B9BAB4
S315000051C02DE9F64F85B08A461C46104613F004FCBE
S315000051D00546BDF8180003A913F035F90027002C81
S315000051E014BF4FF0010BBB460026BBF1000F4FF674
S315000051F0FF79B84607D008B10DF10C086678760835
S3150000520006F0010604E0BDF8180013F059FB8046CD
S31500005210DFF8681CDFF8D82B09781268382041437C
S31500005220531C585C032818BF042800F0B38010985C
S315000052306B1C11441D5C8DF808A0680800F0010085
S315000052408DF809002806887858BF45F080050228A1
S3150000525007D15FEA0A0002BF496B91F824000028D3
S3150000526001D1022730E0404608F002F9ADF800000F
S31500005270BDF8180013F03AFB814608B94FF0010952
S3150000528030000CBF4FF0050A4FF0010ABBF1000FCA
S3150000529004D0201D12F04AFF834601E0BDF800B09D
S315000052A0BDF8180013F09EFACDF80490CDF800A0D2
S315000052B02B465A46414600F0010012F083FA00F0F0
S315000052C087FA814608BF01279CB19DF8080018B9E6
S315000052D0484600F07DFA02D1201D12F027FF012179
S315000052E001910097014633464A464046FFF728FF9C
S315000052F00AE0BDF8180013F075FA3B464A464146E7
S3150000530000F0010012F0B7FD9DF8090020B94FF634
S31500005310FF71404614F05EFD002F3BD19DF8090059
S3150000532028B14146484614F08AFD14F0EDFD3000E0
S315000053301EBF48464FF6FF71884219D013F03FFC56
S31500005340FF2815D0DFF8A81ADFF8307B0A6897F82F
S3150000535000C0382102F1340311FB0CFC4BF6FF713F
S3150000536053F80C20526832F810300B4022F81030F7
S3150000537084B108F00BF90EB1002405E09DF8081081
S31500005380002914BF03240124014643464A46204609
S3150000539014F0CEFF07B0BDE8F08F0000E14F032008
S315000053A02DE9FE4F81460F46144601A9384613F0F3
S315000053B04AF8834600200090384613F00DFB5FEA5A
S315000053C009018246DFF8A05B08D0BBF1000F18BFC9
S315000053D00DF1040B13F02CF8064604E0384613F0E2
S315000053E06FFA83462E46384613F0F6FA02590092B3
S315000053F00DF1010012F09AFE80469DF803405FEA27
S31500005400090006D008222946304615F0E3FA00289E
S3150000541023D1DFF8606BDFF8D82931781268382598
S3150000542015FB01F15318D87818B19AF801008307D3
S3150000543014D55FEA090011D0901C415C022908BF0F
S31500005440002C0BD1404608F0ADF80FF099F99923DE
S31500005450FFF75BFA992001F053FF6EE000F003FFBF
S31500005460002818BF002CDFF8107B05D09420FFF72A
S3150000547014FA0020387660E000F0F5FE00285CD0D3
S31500005480584614F0EAFAFF2818BF5FEA0901DFF868
S31500005490E44706D13278482042435946A05A14F0D0
S315000054A0CEFC14F031FD3178482041435A46615A0A
S315000054B0DFF83C49404600F011FBDFF8C00A90F9DE
S315000054C00210090279843078216815FB00F08A1CE5
S315000054D0125C012A16BF312A11224322891C0A5462
S315000054E0022001F09AFEDFF8980A016800F032F80F
S315000054F012F0CEFD00203874317815FB01F52168D5
S315000055004A19D07820B907F1180003F017FF12E006
S31500005510B9F1000F06D09AF80100820702D5FFF70D
S3150000552013F908E0481C415D042904D1052100F067
S3150000553011F809203874AD21F97300F0E5FB10B1BC
S3150000554000200FF096FEBDE8F78F000000F8FF0779
S315000055504CA7032007F1180003F0FBBE2DE9F04F1E
S3150000556088468DB0404613F037FA8346092200215B
S3150000557015F062FA0546404613F0A2F9814602ABE1
S31500005580052205A9404615F0AFFA02288DF800005D
S315000055902BD09DF808004519EDB20BEB050A05F175
S315000055A010029AF800108DF801100023D2B241467D
S315000055B0012012F0B0FD002817D09DF80100DFF899
S315000055C0B479DFF82C48382601280FD0022819D0E4
S315000055D0042800F0CD80062822D0072800F093800A
S315000055E0082839D07C2800F09580E7E0404613F083
S315000055F0F9F8009500234246002100F00100FFF76C
S31500005600DFFDDBE000F0DDF8012B02BFDFF86819F3
S315000056100878002803D12A464146FFF7C1FECDE0AF
S31500005620484613F07CFA00F0D3F8054608D0404609
S3150000563013F0D8F82A46494600F0010012F006FC9D
S3150000564000F0BFF8022B06D101F0ECFD484612F03F
